{
  "contractName": "Game",
  "abi": [
    {
      "constant": false,
      "inputs": [],
      "name": "deposit",
      "outputs": [],
      "payable": true,
      "stateMutability": "payable",
      "type": "function"
    },
    {
      "constant": false,
      "inputs": [],
      "name": "start",
      "outputs": [],
      "payable": false,
      "stateMutability": "nonpayable",
      "type": "function"
    },
    {
      "constant": false,
      "inputs": [],
      "name": "addTwo",
      "outputs": [],
      "payable": false,
      "stateMutability": "nonpayable",
      "type": "function"
    },
    {
      "constant": false,
      "inputs": [],
      "name": "addThree",
      "outputs": [],
      "payable": false,
      "stateMutability": "nonpayable",
      "type": "function"
    },
    {
      "constant": true,
      "inputs": [],
      "name": "showMessage",
      "outputs": [
        {
          "internalType": "string",
          "name": "",
          "type": "string"
        }
      ],
      "payable": false,
      "stateMutability": "view",
      "type": "function"
    },
    {
      "constant": true,
      "inputs": [],
      "name": "currentPrize",
      "outputs": [
        {
          "internalType": "string",
          "name": "",
          "type": "string"
        }
      ],
      "payable": false,
      "stateMutability": "view",
      "type": "function"
    },
    {
      "constant": true,
      "inputs": [],
      "name": "totalScore",
      "outputs": [
        {
          "internalType": "string",
          "name": "",
          "type": "string"
        }
      ],
      "payable": false,
      "stateMutability": "view",
      "type": "function"
    }
  ],
  "bytecode": "0x6080604052600060025560006003556000600460006101000a81548160ff0219169083151502179055506040518060400160405280600b81526020017f507265737320737461727400000000000000000000000000000000000000000081525060059080519060200190610074929190610087565b5034801561008157600080fd5b5061012c565b828054600181600116156101000203166002900490600052602060002090601f016020900481019282601f106100c857805160ff19168380011785556100f6565b828001600101855582156100f6579182015b828111156100f55782518255916020019190600101906100da565b5b5090506101039190610107565b5090565b61012991905b8082111561012557600081600090555060010161010d565b5090565b90565b610b6b8061013b6000396000f3fe6080604052600436106100705760003560e01c8063c006719f1161004e578063c006719f14610133578063c42b42a0146101c3578063d0e30db014610253578063e2fbc8801461025d57610070565b80634d47524e146100755780638125ceb21461008c578063be9a65551461011c575b600080fd5b34801561008157600080fd5b5061008a610274565b005b34801561009857600080fd5b506100a1610459565b6040518080602001828103825283818151815260200191508051906020019080838360005b838110156100e15780820151818401526020810190506100c6565b50505050905090810190601f16801561010e5780820380516001836020036101000a031916815260200191505b509250505060405180910390f35b34801561012857600080fd5b506101316104fb565b005b34801561013f57600080fd5b50610148610611565b6040518080602001828103825283818151815260200191508051906020019080838360005b8381101561018857808201518184015260208101905061016d565b50505050905090810190601f1680156101b55780820380516001836020036101000a031916815260200191505b509250505060405180910390f35b3480156101cf57600080fd5b506101d8610623565b6040518080602001828103825283818151815260200191508051906020019080838360005b838110156102185780820151818401526020810190506101fd565b50505050905090810190601f1680156102455780820380516001836020036101000a031916815260200191505b509250505060405180910390f35b61025b610635565b005b34801561026957600080fd5b50610272610637565b005b600460009054906101000a900460ff166102d9576040518060400160405280601c81526020017f506c656173652c207374617274207468652067616d6520666972737400000000815250600590805190602001906102d3929190610a65565b50610457565b600260015401600181905550600f60035410156102fd57600060038190555061030a565b600f600354036003819055505b600054600154141561037257600354600254016002819055506000600460006101000a81548160ff0219169083151502179055506040518060600160405280602c8152602001610b0b602c91396005908051906020019061036c929190610a65565b50610456565b60005460015411156103ea576040518060400160405280600981526020017f596f75206c6f7374210000000000000000000000000000000000000000000000815250600590805190602001906103c9929190610a65565b506000600460006101000a81548160ff021916908315150217905550610455565b61043e6103f860015461081c565b6040518060400160405280600481526020017f203d3e200000000000000000000000000000000000000000000000000000000081525061043960005461081c565b610949565b60059080519060200190610453929190610a65565b505b5b5b565b606060058054600181600116156101000203166002900480601f0160208091040260200160405190810160405280929190818152602001828054600181600116156101000203166002900480156104f15780601f106104c6576101008083540402835291602001916104f1565b820191906000526020600020905b8154815290600101906020018083116104d457829003601f168201915b5050505050905090565b600b601e424460405160200180838152602001828152602001925050506040516020818303038152906040528051906020012060001c8161053857fe5b0601600081905550600a424460405160200180838152602001828152602001925050506040516020818303038152906040528051906020012060001c8161057b57fe5b066001819055506105d661059060015461081c565b6040518060400160405280600481526020017f203d3e20000000000000000000000000000000000000000000000000000000008152506105d160005461081c565b610949565b600590805190602001906105eb929190610a65565b506001600460006101000a81548160ff0219169083151502179055506064600381905550565b606061061e60025461081c565b905090565b606061063060035461081c565b905090565b565b600460009054906101000a900460ff1661069c576040518060400160405280601c81526020017f506c656173652c207374617274207468652067616d652066697273740000000081525060059080519060200190610696929190610a65565b5061081a565b600360015401600181905550600560035410156106c05760006003819055506106cd565b6005600354036003819055505b6000546001541415610735576000600460006101000a81548160ff021916908315150217905550600354600254016002819055506040518060600160405280602c8152602001610b0b602c91396005908051906020019061072f929190610a65565b50610819565b60005460015411156107ad576040518060400160405280600981526020017f596f75206c6f73742100000000000000000000000000000000000000000000008152506005908051906020019061078c929190610a65565b506000600460006101000a81548160ff021916908315150217905550610818565b6108016107bb60015461081c565b6040518060400160405280600481526020017f203d3e20000000000000000000000000000000000000000000000000000000008152506107fc60005461081c565b610949565b60059080519060200190610816929190610a65565b505b5b5b565b60606000821415610864576040518060400160405280600181526020017f30000000000000000000000000000000000000000000000000000000000000008152509050610944565b600082905060005b6000821461088e578080600101915050600a828161088657fe5b04915061086c565b6060816040519080825280601f01601f1916602001820160405280156108c35781602001600182028038833980820191505090505b50905060006001830390505b6000861461093c57600a86816108e157fe5b0660300160f81b828280600190039350815181106108fb57fe5b60200101907effffffffffffffffffffffffffffffffffffffffffffffffffffffffffffff1916908160001a905350600a868161093457fe5b0495506108cf565b819450505050505b919050565b60608383836040516020018084805190602001908083835b602083106109845780518252602082019150602081019050602083039250610961565b6001836020036101000a03801982511681845116808217855250505050505090500183805190602001908083835b602083106109d557805182526020820191506020810190506020830392506109b2565b6001836020036101000a03801982511681845116808217855250505050505090500182805190602001908083835b60208310610a265780518252602082019150602081019050602083039250610a03565b6001836020036101000a038019825116818451168082178552505050505050905001935050505060405160208183030381529060405290509392505050565b828054600181600116156101000203166002900490600052602060002090601f016020900481019282601f10610aa657805160ff1916838001178555610ad4565b82800160010185558215610ad4579182015b82811115610ad3578251825591602001919060010190610ab8565b5b509050610ae19190610ae5565b5090565b610b0791905b80821115610b03576000816000905550600101610aeb565b5090565b9056fe436f6e67726174732c20796f7520776f6e2120507265737320737461727420746f20706c617920616761696ea265627a7a723158208e562bb9cb84e1a4485b4f4dfcb2b7551bda608472de4687271c14684484c63164736f6c63430005100032",
  "source": "pragma solidity ^0.5.0;\n\ncontract Game {\n    uint256 private goal;\n    uint256 private current;\n    uint256 private total_score = 0;\n    uint256 current_prize = 0;\n\n    bool started = false;\n    string message = \"Press start\";\n\n    // Concat four strings\n    function append(\n        string memory a,\n        string memory b,\n        string memory c,\n        string memory d\n    ) internal pure returns (string memory) {\n        return string(abi.encodePacked(a, b, c, d));\n    }\n\n    // Concat three strings\n    function append(\n        string memory a,\n        string memory b,\n        string memory c\n    ) internal pure returns (string memory) {\n        return string(abi.encodePacked(a, b, c));\n    }\n\n    function deposit() public payable {}\n\n    function uint2str(uint256 _i)\n        internal\n        pure\n        returns (string memory _uintAsString)\n    {\n        if (_i == 0) {\n            return \"0\";\n        }\n        uint256 j = _i;\n        uint256 len;\n        while (j != 0) {\n            len++;\n            j /= 10;\n        }\n        bytes memory bstr = new bytes(len);\n        uint256 k = len - 1;\n        while (_i != 0) {\n            bstr[k--] = bytes1(uint8(48 + (_i % 10)));\n            _i /= 10;\n        }\n        return string(bstr);\n    }\n\n    function start() public {\n        goal =\n            (uint256(\n                keccak256(abi.encodePacked(block.timestamp, block.difficulty))\n            ) % 30) +\n            11;\n        current =\n            uint256(\n                keccak256(abi.encodePacked(block.timestamp, block.difficulty))\n            ) %\n            10;\n\n        message = append(uint2str(current), \" => \", uint2str(goal));\n        started = true;\n        current_prize = 100;\n    }\n\n    function addTwo() public {\n        if (!started) {\n            message = \"Please, start the game first\";\n        } else {\n            current = current + 2;\n\n            if (current_prize < 15) {\n                current_prize = 0;\n            } else {\n                current_prize = current_prize - 15;\n            }\n\n            if (current == goal) {\n                total_score = total_score + current_prize;\n                started = false;\n                message = \"Congrats, you won! Press start to play again\";\n            } else if (current > goal) {\n                message = \"You lost!\";\n                started = false;\n            } else {\n                message = append(uint2str(current), \" => \", uint2str(goal));\n            }\n        }\n    }\n\n    function addThree() public {\n        if (!started) {\n            message = \"Please, start the game first\";\n        } else {\n            current = current + 3;\n\n            if (current_prize < 5) {\n                current_prize = 0;\n            } else {\n                current_prize = current_prize - 5;\n            }\n\n            if (current == goal) {\n                started = false;\n                total_score = total_score + current_prize;\n                message = \"Congrats, you won! Press start to play again\";\n            } else if (current > goal) {\n                message = \"You lost!\";\n                started = false;\n            } else {\n                message = append(uint2str(current), \" => \", uint2str(goal));\n            }\n        }\n    }\n\n    function showMessage() public view returns (string memory) {\n        return message;\n    }\n\n    function currentPrize() public view returns (string memory) {\n        return uint2str(current_prize);\n    }\n\n    function totalScore() public view returns (string memory) {\n        return uint2str(total_score);\n    }\n}\n",
  "sourcePath": "/home/ayanginet/Desktop/solidity_tutorial/contracts/Game.sol",
  "compiler": {
    "name": "solc",
    "version": "0.5.16+commit.9c3226ce.Emscripten.clang"
  },
  "schemaVersion": "3.2.1",
  "updatedAt": "2020-07-06T12:15:41.891Z",
  "networkType": "ethereum",
  "devdoc": {
    "methods": {}
  },
  "userdoc": {
    "methods": {}
  }
}