{
  "contractName": "Game",
  "abi": [
    {
      "constant": false,
      "inputs": [],
      "name": "start",
      "outputs": [
        {
          "internalType": "string",
          "name": "",
          "type": "string"
        }
      ],
      "payable": false,
      "stateMutability": "nonpayable",
      "type": "function"
    },
    {
      "constant": false,
      "inputs": [],
      "name": "addOne",
      "outputs": [
        {
          "internalType": "string",
          "name": "",
          "type": "string"
        }
      ],
      "payable": false,
      "stateMutability": "nonpayable",
      "type": "function"
    },
    {
      "constant": false,
      "inputs": [],
      "name": "addTwo",
      "outputs": [
        {
          "internalType": "string",
          "name": "",
          "type": "string"
        }
      ],
      "payable": false,
      "stateMutability": "nonpayable",
      "type": "function"
    },
    {
      "constant": false,
      "inputs": [],
      "name": "addEight",
      "outputs": [
        {
          "internalType": "string",
          "name": "",
          "type": "string"
        }
      ],
      "payable": false,
      "stateMutability": "nonpayable",
      "type": "function"
    },
    {
      "constant": true,
      "inputs": [],
      "name": "showMessage",
      "outputs": [
        {
          "internalType": "string",
          "name": "",
          "type": "string"
        }
      ],
      "payable": false,
      "stateMutability": "view",
      "type": "function"
    },
    {
      "constant": true,
      "inputs": [],
      "name": "currentPrize",
      "outputs": [
        {
          "internalType": "string",
          "name": "",
          "type": "string"
        }
      ],
      "payable": false,
      "stateMutability": "view",
      "type": "function"
    },
    {
      "constant": true,
      "inputs": [],
      "name": "totalScore",
      "outputs": [
        {
          "internalType": "string",
          "name": "",
          "type": "string"
        }
      ],
      "payable": false,
      "stateMutability": "view",
      "type": "function"
    }
  ],
  "bytecode": "0x6080604052600060025560006003556000600460006101000a81548160ff0219169083151502179055506040518060400160405280600b81526020017f507265737320737461727400000000000000000000000000000000000000000081525060059080519060200190620000769291906200008b565b503480156200008457600080fd5b506200013a565b828054600181600116156101000203166002900490600052602060002090601f016020900481019282601f10620000ce57805160ff1916838001178555620000ff565b82800160010185558215620000ff579182015b82811115620000fe578251825591602001919060010190620000e1565b5b5090506200010e919062000112565b5090565b6200013791905b808211156200013357600081600090555060010162000119565b5090565b90565b611386806200014a6000396000f3fe608060405234801561001057600080fd5b506004361061007d5760003560e01c8063be9a65551161005b578063be9a65551461020b578063c006719f1461028e578063c42b42a014610311578063c60dc6c4146103945761007d565b80634d47524e146100825780636057d3ee146101055780638125ceb214610188575b600080fd5b61008a610417565b6040518080602001828103825283818151815260200191508051906020019080838360005b838110156100ca5780820151818401526020810190506100af565b50505050905090810190601f1680156100f75780820380516001836020036101000a031916815260200191505b509250505060405180910390f35b61010d6106d7565b6040518080602001828103825283818151815260200191508051906020019080838360005b8381101561014d578082015181840152602081019050610132565b50505050905090810190601f16801561017a5780820380516001836020036101000a031916815260200191505b509250505060405180910390f35b610190610996565b6040518080602001828103825283818151815260200191508051906020019080838360005b838110156101d05780820151818401526020810190506101b5565b50505050905090810190601f1680156101fd5780820380516001836020036101000a031916815260200191505b509250505060405180910390f35b610213610a38565b6040518080602001828103825283818151815260200191508051906020019080838360005b83811015610253578082015181840152602081019050610238565b50505050905090810190601f1680156102805780820380516001836020036101000a031916815260200191505b509250505060405180910390f35b610296610bee565b6040518080602001828103825283818151815260200191508051906020019080838360005b838110156102d65780820151818401526020810190506102bb565b50505050905090810190601f1680156103035780820380516001836020036101000a031916815260200191505b509250505060405180910390f35b610319610c00565b6040518080602001828103825283818151815260200191508051906020019080838360005b8381101561035957808201518184015260208101905061033e565b50505050905090810190601f1680156103865780820380516001836020036101000a031916815260200191505b509250505060405180910390f35b61039c610c12565b6040518080602001828103825283818151815260200191508051906020019080838360005b838110156103dc5780820151818401526020810190506103c1565b50505050905090810190601f1680156104095780820380516001836020036101000a031916815260200191505b509250505060405180910390f35b6060600460009054906101000a900460ff1661047e576040518060400160405280601c81526020017f506c656173652c207374617274207468652067616d65206669727374000000008152506005908051906020019061047892919061128b565b50610637565b600260015401600181905550600560035403600381905550600054600154141561055257600354600254016002819055506000600460006101000a81548160ff021916908315150217905550610537604051806060016040528060218152602001611331602191396104f1600354610ed2565b6040518060400160405280600f81526020017f2e20546f74616c2053636f72653a200000000000000000000000000000000000815250610532600254610ed2565b610fff565b6005908051906020019061054c92919061128b565b50610636565b60005460015411156105ca576040518060400160405280600981526020017f596f75206c6f7374210000000000000000000000000000000000000000000000815250600590805190602001906105a992919061128b565b506000600460006101000a81548160ff021916908315150217905550610635565b61061e6105d8600154610ed2565b6040518060400160405280600481526020017f203d3e2000000000000000000000000000000000000000000000000000000000815250610619600054610ed2565b61116f565b6005908051906020019061063392919061128b565b505b5b5b60058054600181600116156101000203166002900480601f0160208091040260200160405190810160405280929190818152602001828054600181600116156101000203166002900480156106cd5780601f106106a2576101008083540402835291602001916106cd565b820191906000526020600020905b8154815290600101906020018083116106b057829003601f168201915b5050505050905090565b6060600460009054906101000a900460ff1661073e576040518060400160405280601c81526020017f506c656173652c207374617274207468652067616d65206669727374000000008152506005908051906020019061073892919061128b565b506108f6565b6001805401600181905550600a600354036003819055506000546001541415610811576000600460006101000a81548160ff021916908315150217905550600354600254016002819055506107f6604051806060016040528060218152602001611331602191396107b0600354610ed2565b6040518060400160405280600f81526020017f2e20546f74616c2053636f72653a2000000000000000000000000000000000008152506107f1600254610ed2565b610fff565b6005908051906020019061080b92919061128b565b506108f5565b6000546001541115610889576040518060400160405280600981526020017f596f75206c6f73742100000000000000000000000000000000000000000000008152506005908051906020019061086892919061128b565b506000600460006101000a81548160ff0219169083151502179055506108f4565b6108dd610897600154610ed2565b6040518060400160405280600481526020017f203d3e20000000000000000000000000000000000000000000000000000000008152506108d8600054610ed2565b61116f565b600590805190602001906108f292919061128b565b505b5b5b60058054600181600116156101000203166002900480601f01602080910402602001604051908101604052809291908181526020018280546001816001161561010002031660029004801561098c5780601f106109615761010080835404028352916020019161098c565b820191906000526020600020905b81548152906001019060200180831161096f57829003601f168201915b5050505050905090565b606060058054600181600116156101000203166002900480601f016020809104026020016040519081016040528092919081815260200182805460018160011615610100020316600290048015610a2e5780601f10610a0357610100808354040283529160200191610a2e565b820191906000526020600020905b815481529060010190602001808311610a1157829003601f168201915b5050505050905090565b6060600b6061424460405160200180838152602001828152602001925050506040516020818303038152906040528051906020012060001c81610a7757fe5b0601600081905550600a424460405160200180838152602001828152602001925050506040516020818303038152906040528051906020012060001c81610aba57fe5b06600181905550610b15610acf600154610ed2565b6040518060400160405280600481526020017f203d3e2000000000000000000000000000000000000000000000000000000000815250610b10600054610ed2565b61116f565b60059080519060200190610b2a92919061128b565b506001600460006101000a81548160ff021916908315150217905550606460038190555060058054600181600116156101000203166002900480601f016020809104026020016040519081016040528092919081815260200182805460018160011615610100020316600290048015610be45780601f10610bb957610100808354040283529160200191610be4565b820191906000526020600020905b815481529060010190602001808311610bc757829003601f168201915b5050505050905090565b6060610bfb600254610ed2565b905090565b6060610c0d600354610ed2565b905090565b6060600460009054906101000a900460ff16610c79576040518060400160405280601c81526020017f506c656173652c207374617274207468652067616d652066697273740000000081525060059080519060200190610c7392919061128b565b50610e32565b6008600154016001819055506002600354036003819055506000546001541415610d4d576000600460006101000a81548160ff02191690831515021790555060035460025401600281905550610d3260405180606001604052806021815260200161133160219139610cec600354610ed2565b6040518060400160405280600f81526020017f2e20546f74616c2053636f72653a200000000000000000000000000000000000815250610d2d600254610ed2565b610fff565b60059080519060200190610d4792919061128b565b50610e31565b6000546001541115610dc5576040518060400160405280600981526020017f596f75206c6f737421000000000000000000000000000000000000000000000081525060059080519060200190610da492919061128b565b506000600460006101000a81548160ff021916908315150217905550610e30565b610e19610dd3600154610ed2565b6040518060400160405280600481526020017f203d3e2000000000000000000000000000000000000000000000000000000000815250610e14600054610ed2565b61116f565b60059080519060200190610e2e92919061128b565b505b5b5b60058054600181600116156101000203166002900480601f016020809104026020016040519081016040528092919081815260200182805460018160011615610100020316600290048015610ec85780601f10610e9d57610100808354040283529160200191610ec8565b820191906000526020600020905b815481529060010190602001808311610eab57829003601f168201915b5050505050905090565b60606000821415610f1a576040518060400160405280600181526020017f30000000000000000000000000000000000000000000000000000000000000008152509050610ffa565b600082905060005b60008214610f44578080600101915050600a8281610f3c57fe5b049150610f22565b6060816040519080825280601f01601f191660200182016040528015610f795781602001600182028038833980820191505090505b50905060006001830390505b60008614610ff257600a8681610f9757fe5b0660300160f81b82828060019003935081518110610fb157fe5b60200101907effffffffffffffffffffffffffffffffffffffffffffffffffffffffffffff1916908160001a905350600a8681610fea57fe5b049550610f85565b819450505050505b919050565b6060848484846040516020018085805190602001908083835b6020831061103b5780518252602082019150602081019050602083039250611018565b6001836020036101000a03801982511681845116808217855250505050505090500184805190602001908083835b6020831061108c5780518252602082019150602081019050602083039250611069565b6001836020036101000a03801982511681845116808217855250505050505090500183805190602001908083835b602083106110dd57805182526020820191506020810190506020830392506110ba565b6001836020036101000a03801982511681845116808217855250505050505090500182805190602001908083835b6020831061112e578051825260208201915060208101905060208303925061110b565b6001836020036101000a0380198251168184511680821785525050505050509050019450505050506040516020818303038152906040529050949350505050565b60608383836040516020018084805190602001908083835b602083106111aa5780518252602082019150602081019050602083039250611187565b6001836020036101000a03801982511681845116808217855250505050505090500183805190602001908083835b602083106111fb57805182526020820191506020810190506020830392506111d8565b6001836020036101000a03801982511681845116808217855250505050505090500182805190602001908083835b6020831061124c5780518252602082019150602081019050602083039250611229565b6001836020036101000a038019825116818451168082178552505050505050905001935050505060405160208183030381529060405290509392505050565b828054600181600116156101000203166002900490600052602060002090601f016020900481019282601f106112cc57805160ff19168380011785556112fa565b828001600101855582156112fa579182015b828111156112f95782518255916020019190600101906112de565b5b509050611307919061130b565b5090565b61132d91905b80821115611329576000816000905550600101611311565b5090565b9056fe436f6e67726174732c20796f7520776f6e2120596f7572207072697a6520697320a265627a7a72315820f3177bd0ba78c5c1be6c0e9c593126b501a3461910295af5ad06a84a32528ef264736f6c63430005100032",
  "source": "pragma solidity ^0.5.0;\n\ncontract Game {\n    uint256 private goal;\n    uint256 private current;\n    uint256 private total_score = 0;\n    uint256 current_prize = 0;\n\n    bool started = false;\n    string message = \"Press start\";\n\n    // Concat four strings\n    function append(\n        string memory a,\n        string memory b,\n        string memory c,\n        string memory d\n    ) internal pure returns (string memory) {\n        return string(abi.encodePacked(a, b, c, d));\n    }\n\n    // Concat three strings\n    function append(\n        string memory a,\n        string memory b,\n        string memory c\n    ) internal pure returns (string memory) {\n        return string(abi.encodePacked(a, b, c));\n    }\n\n    function uint2str(uint256 _i)\n        internal\n        pure\n        returns (string memory _uintAsString)\n    {\n        if (_i == 0) {\n            return \"0\";\n        }\n        uint256 j = _i;\n        uint256 len;\n        while (j != 0) {\n            len++;\n            j /= 10;\n        }\n        bytes memory bstr = new bytes(len);\n        uint256 k = len - 1;\n        while (_i != 0) {\n            bstr[k--] = bytes1(uint8(48 + (_i % 10)));\n            _i /= 10;\n        }\n        return string(bstr);\n    }\n\n    function start() public returns (string memory) {\n        goal =\n            (uint256(\n                keccak256(abi.encodePacked(block.timestamp, block.difficulty))\n            ) % 97) +\n            11;\n        current =\n            uint256(\n                keccak256(abi.encodePacked(block.timestamp, block.difficulty))\n            ) %\n            10;\n\n        message = append(uint2str(current), \" => \", uint2str(goal));\n        started = true;\n        current_prize = 100;\n\n        return message;\n    }\n\n    function addOne() public returns (string memory) {\n        if (!started) {\n            message = \"Please, start the game first\";\n        } else {\n            current = current + 1;\n            current_prize = current_prize - 10;\n\n            if (current == goal) {\n                started = false;\n                total_score = total_score + current_prize;\n                message = append(\n                    \"Congrats, you won! Your prize is \",\n                    uint2str(current_prize),\n                    \". Total Score: \",\n                    uint2str(total_score)\n                );\n            } else if (current > goal) {\n                message = \"You lost!\";\n                started = false;\n            } else {\n                message = append(uint2str(current), \" => \", uint2str(goal));\n            }\n        }\n        return message;\n    }\n\n    function addTwo() public returns (string memory) {\n        if (!started) {\n            message = \"Please, start the game first\";\n        } else {\n            current = current + 2;\n            current_prize = current_prize - 5;\n            if (current == goal) {\n                total_score = total_score + current_prize;\n                started = false;\n                message = append(\n                    \"Congrats, you won! Your prize is \",\n                    uint2str(current_prize),\n                    \". Total Score: \",\n                    uint2str(total_score)\n                );\n            } else if (current > goal) {\n                message = \"You lost!\";\n                started = false;\n            } else {\n                message = append(uint2str(current), \" => \", uint2str(goal));\n            }\n        }\n        return message;\n    }\n\n    function addEight() public returns (string memory) {\n        if (!started) {\n            message = \"Please, start the game first\";\n        } else {\n            current = current + 8;\n            current_prize = current_prize - 2;\n            if (current == goal) {\n                started = false;\n                total_score = total_score + current_prize;\n                message = append(\n                    \"Congrats, you won! Your prize is \",\n                    uint2str(current_prize),\n                    \". Total Score: \",\n                    uint2str(total_score)\n                );\n            } else if (current > goal) {\n                message = \"You lost!\";\n                started = false;\n            } else {\n                message = append(uint2str(current), \" => \", uint2str(goal));\n            }\n        }\n        return message;\n    }\n\n    function showMessage() public view returns (string memory) {\n        return message;\n    }\n\n    function currentPrize() public view returns (string memory) {\n        return uint2str(current_prize);\n    }\n\n    function totalScore() public view returns (string memory) {\n        return uint2str(total_score);\n    }\n}\n",
  "sourcePath": "/home/ayanginet/Desktop/solidity_tutorial/contracts/Game.sol",
  "compiler": {
    "name": "solc",
    "version": "0.5.16+commit.9c3226ce.Emscripten.clang"
  },
  "schemaVersion": "3.2.1",
  "updatedAt": "2020-07-05T17:50:49.289Z",
  "devdoc": {
    "methods": {}
  },
  "userdoc": {
    "methods": {}
  }
}